{
  "contractName": "TweeBle",
  "abi": [
    {
      "anonymous": false,
      "inputs": [
        {
          "indexed": false,
          "internalType": "uint256",
          "name": "id",
          "type": "uint256"
        },
        {
          "indexed": false,
          "internalType": "string",
          "name": "content",
          "type": "string"
        },
        {
          "indexed": false,
          "internalType": "uint256",
          "name": "timestamp",
          "type": "uint256"
        },
        {
          "indexed": false,
          "internalType": "uint256",
          "name": "likes",
          "type": "uint256"
        },
        {
          "indexed": false,
          "internalType": "uint256",
          "name": "tipAmount",
          "type": "uint256"
        },
        {
          "indexed": false,
          "internalType": "address payable",
          "name": "author",
          "type": "address"
        }
      ],
      "name": "TweetLiked",
      "type": "event"
    },
    {
      "anonymous": false,
      "inputs": [
        {
          "indexed": false,
          "internalType": "uint256",
          "name": "id",
          "type": "uint256"
        },
        {
          "indexed": false,
          "internalType": "string",
          "name": "content",
          "type": "string"
        },
        {
          "indexed": false,
          "internalType": "uint256",
          "name": "timestamp",
          "type": "uint256"
        },
        {
          "indexed": false,
          "internalType": "uint256",
          "name": "likes",
          "type": "uint256"
        },
        {
          "indexed": false,
          "internalType": "uint256",
          "name": "tipAmount",
          "type": "uint256"
        },
        {
          "indexed": false,
          "internalType": "address payable",
          "name": "author",
          "type": "address"
        }
      ],
      "name": "TweetPosted",
      "type": "event"
    },
    {
      "anonymous": false,
      "inputs": [
        {
          "indexed": false,
          "internalType": "uint256",
          "name": "id",
          "type": "uint256"
        },
        {
          "indexed": false,
          "internalType": "string",
          "name": "content",
          "type": "string"
        },
        {
          "indexed": false,
          "internalType": "uint256",
          "name": "timestamp",
          "type": "uint256"
        },
        {
          "indexed": false,
          "internalType": "uint256",
          "name": "likes",
          "type": "uint256"
        },
        {
          "indexed": false,
          "internalType": "uint256",
          "name": "tipAmount",
          "type": "uint256"
        },
        {
          "indexed": false,
          "internalType": "address payable",
          "name": "author",
          "type": "address"
        }
      ],
      "name": "TweetTipped",
      "type": "event"
    },
    {
      "inputs": [],
      "name": "name",
      "outputs": [
        {
          "internalType": "string",
          "name": "",
          "type": "string"
        }
      ],
      "stateMutability": "view",
      "type": "function",
      "constant": true
    },
    {
      "inputs": [],
      "name": "tweetCount",
      "outputs": [
        {
          "internalType": "uint256",
          "name": "",
          "type": "uint256"
        }
      ],
      "stateMutability": "view",
      "type": "function",
      "constant": true
    },
    {
      "inputs": [
        {
          "internalType": "uint256",
          "name": "",
          "type": "uint256"
        }
      ],
      "name": "tweets",
      "outputs": [
        {
          "internalType": "uint256",
          "name": "id",
          "type": "uint256"
        },
        {
          "internalType": "string",
          "name": "content",
          "type": "string"
        },
        {
          "internalType": "uint256",
          "name": "timestamp",
          "type": "uint256"
        },
        {
          "internalType": "uint256",
          "name": "likes",
          "type": "uint256"
        },
        {
          "internalType": "uint256",
          "name": "tipAmount",
          "type": "uint256"
        },
        {
          "internalType": "address payable",
          "name": "author",
          "type": "address"
        }
      ],
      "stateMutability": "view",
      "type": "function",
      "constant": true
    },
    {
      "inputs": [
        {
          "internalType": "uint256",
          "name": "id",
          "type": "uint256"
        }
      ],
      "name": "getTweet",
      "outputs": [
        {
          "components": [
            {
              "internalType": "uint256",
              "name": "id",
              "type": "uint256"
            },
            {
              "internalType": "string",
              "name": "content",
              "type": "string"
            },
            {
              "internalType": "uint256",
              "name": "timestamp",
              "type": "uint256"
            },
            {
              "internalType": "uint256",
              "name": "likes",
              "type": "uint256"
            },
            {
              "internalType": "uint256",
              "name": "tipAmount",
              "type": "uint256"
            },
            {
              "internalType": "address payable",
              "name": "author",
              "type": "address"
            }
          ],
          "internalType": "struct TweeBle.Tweet",
          "name": "",
          "type": "tuple"
        }
      ],
      "stateMutability": "view",
      "type": "function",
      "constant": true
    },
    {
      "inputs": [
        {
          "internalType": "string",
          "name": "_content",
          "type": "string"
        },
        {
          "internalType": "uint256",
          "name": "_timestamp",
          "type": "uint256"
        }
      ],
      "name": "postTweet",
      "outputs": [],
      "stateMutability": "nonpayable",
      "type": "function"
    },
    {
      "inputs": [
        {
          "internalType": "uint256",
          "name": "_id",
          "type": "uint256"
        }
      ],
      "name": "likeTweet",
      "outputs": [],
      "stateMutability": "nonpayable",
      "type": "function"
    },
    {
      "inputs": [
        {
          "internalType": "uint256",
          "name": "_id",
          "type": "uint256"
        }
      ],
      "name": "tipTweet",
      "outputs": [],
      "stateMutability": "payable",
      "type": "function",
      "payable": true
    }
  ],
  "bytecode": "0x60c0604052600760808190526654776565426c6560c81b60a09081526100289160009190610040565b50600060015534801561003a57600080fd5b50610114565b82805461004c906100d9565b90600052602060002090601f01602090048101928261006e57600085556100b4565b82601f1061008757805160ff19168380011785556100b4565b828001600101855582156100b4579182015b828111156100b4578251825591602001919060010190610099565b506100c09291506100c4565b5090565b5b808211156100c057600081556001016100c5565b600181811c908216806100ed57607f821691505b6020821081141561010e57634e487b7160e01b600052602260045260246000fd5b50919050565b610aa7806101236000396000f3fe6080604052600436106100705760003560e01c80635ffc6ceb1161004e5780635ffc6ceb146100e6578063b3465fd414610106578063c3ad5ecb14610119578063e8d857b01461014657600080fd5b806306fdde031461007557806337318a9e146100a05780634a7782b3146100c2575b600080fd5b34801561008157600080fd5b5061008a610178565b6040516100979190610846565b60405180910390f35b3480156100ac57600080fd5b506100c06100bb366004610876565b610206565b005b3480156100ce57600080fd5b506100d860015481565b604051908152602001610097565b3480156100f257600080fd5b506100c061010136600461092b565b610314565b6100c061011436600461092b565b61041f565b34801561012557600080fd5b5061013961013436600461092b565b610565565b6040516100979190610944565b34801561015257600080fd5b5061016661016136600461092b565b610699565b604051610097969594939291906109a6565b60008054610185906109ed565b80601f01602080910402602001604051908101604052809291908181526020018280546101b1906109ed565b80156101fe5780601f106101d3576101008083540402835291602001916101fe565b820191906000526020600020905b8154815290600101906020018083116101e157829003601f168201915b505050505081565b600082511161021457600080fd5b6001805490600061022483610a3e565b90915550506040805160c081018252600180548083526020808401878152848601879052600060608601819052608086018190523360a087015292835260028252949091208351815593518051939493610285938501929190910190610760565b506040828101516002830155606083015160038301556080830151600483015560a090920151600590910180546001600160a01b0319166001600160a01b0390921691909117905560015490517fb2b09b347700809ebff0d5c9fa3b00dd6cde520ec5e5e863b12ac5b9f08457cc916103089185904290600090819033906109a6565b60405180910390a15050565b60008111801561032657506001548111155b61032f57600080fd5b600061033a82610565565b60608101805191925061034c82610a3e565b9052508051600090815260026020908152604090912082518155818301518051849361037f926001850192910190610760565b5060408201518160020155606082015181600301556080820151816004015560a08201518160050160006101000a8154816001600160a01b0302191690836001600160a01b031602179055509050507fd97594b27da8ca89c8668580a2139fbd3032250e33b83a6737aaeab0132624d8816000015182602001518360400151846060015185608001518660a00151604051610308969594939291906109a6565b60008111801561043157506001548111155b61043a57600080fd5b600061044582610565565b60a08101516040519192506001600160a01b0316903480156108fc02916000818181858888f19350505050158015610481573d6000803e3d6000fd5b503481608001516104929190610a59565b608082015260008281526002602090815260409091208251815581830151805184936104c5926001850192910190610760565b5060408201518160020155606082015181600301556080820151816004015560a08201518160050160006101000a8154816001600160a01b0302191690836001600160a01b031602179055509050507f0e8e7c2639465b69d6928c660853d42c9d195da3398713d7331e5c124cbd50d0816000015182602001518360400151846060015185608001518660a00151604051610308969594939291906109a6565b6105a76040518060c00160405280600081526020016060815260200160008152602001600081526020016000815260200160006001600160a01b031681525090565b600260008381526020019081526020016000206040518060c0016040529081600082015481526020016001820180546105df906109ed565b80601f016020809104026020016040519081016040528092919081815260200182805461060b906109ed565b80156106585780601f1061062d57610100808354040283529160200191610658565b820191906000526020600020905b81548152906001019060200180831161063b57829003601f168201915b50505091835250506002820154602082015260038201546040820152600482015460608201526005909101546001600160a01b031660809091015292915050565b600260205260009081526040902080546001820180549192916106bb906109ed565b80601f01602080910402602001604051908101604052809291908181526020018280546106e7906109ed565b80156107345780601f1061070957610100808354040283529160200191610734565b820191906000526020600020905b81548152906001019060200180831161071757829003601f168201915b50505050600283015460038401546004850154600590950154939491939092506001600160a01b031686565b82805461076c906109ed565b90600052602060002090601f01602090048101928261078e57600085556107d4565b82601f106107a757805160ff19168380011785556107d4565b828001600101855582156107d4579182015b828111156107d45782518255916020019190600101906107b9565b506107e09291506107e4565b5090565b5b808211156107e057600081556001016107e5565b6000815180845260005b8181101561081f57602081850181015186830182015201610803565b81811115610831576000602083870101525b50601f01601f19169290920160200192915050565b60208152600061085960208301846107f9565b9392505050565b634e487b7160e01b600052604160045260246000fd5b6000806040838503121561088957600080fd5b823567ffffffffffffffff808211156108a157600080fd5b818501915085601f8301126108b557600080fd5b8135818111156108c7576108c7610860565b604051601f8201601f19908116603f011681019083821181831017156108ef576108ef610860565b8160405282815288602084870101111561090857600080fd5b826020860160208301376000602093820184015298969091013596505050505050565b60006020828403121561093d57600080fd5b5035919050565b60208152815160208201526000602083015160c0604084015261096a60e08401826107f9565b90506040840151606084015260608401516080840152608084015160a084015260018060a01b0360a08501511660c08401528091505092915050565b86815260c0602082015260006109bf60c08301886107f9565b604083019690965250606081019390935260808301919091526001600160a01b031660a09091015292915050565b600181811c90821680610a0157607f821691505b60208210811415610a2257634e487b7160e01b600052602260045260246000fd5b50919050565b634e487b7160e01b600052601160045260246000fd5b6000600019821415610a5257610a52610a28565b5060010190565b60008219821115610a6c57610a6c610a28565b50019056fea26469706673582212203c51bc26ec100192d6888a65ee9275f0fa8657157a461eac06ce4ee3cb7fc7e964736f6c634300080a0033",
  "immutableReferences": {},
  "source": "// SPDX-License-Identifier: MIT\r\npragma solidity >=0.4.22 <0.9.0;\r\n\r\ncontract TweeBle {\r\n    string public name = \"TweeBle\";\r\n    uint public tweetCount = 0;\r\n    mapping(uint256 => Tweet) public tweets;\r\n\r\n    struct Tweet {\r\n        uint id;\r\n        string content;\r\n        uint256 timestamp;\r\n        uint likes;\r\n        uint256 tipAmount;\r\n        address payable author;\r\n    }\r\n\r\n    event TweetPosted(\r\n        uint id,\r\n        string content,\r\n        uint256 timestamp,\r\n        uint likes,\r\n        uint256 tipAmount,\r\n        address payable author\r\n    );\r\n\r\n    event TweetLiked(\r\n        uint id,\r\n        string content,\r\n        uint256 timestamp,\r\n        uint likes,\r\n        uint256 tipAmount,\r\n        address payable author\r\n    );\r\n\r\n    event TweetTipped(\r\n        uint id,\r\n        string content,\r\n        uint256 timestamp,\r\n        uint likes,\r\n        uint256 tipAmount,\r\n        address payable author\r\n    );\r\n\r\n    function getTweet(uint id) public view returns (Tweet memory) {\r\n        return tweets[id];\r\n    }\r\n\r\n    function postTweet(string memory _content, uint256 _timestamp) public {\r\n        // Check to make sure string is empty or not\r\n        require(bytes(_content).length > 0);\r\n\r\n        tweetCount++;\r\n        tweets[tweetCount] = Tweet(\r\n            tweetCount,\r\n            _content,\r\n            _timestamp,\r\n            0,\r\n            0,\r\n            payable(msg.sender)\r\n        );\r\n\r\n        emit TweetPosted(tweetCount, _content, block.timestamp, 0, 0, payable(msg.sender));\r\n    }\r\n\r\n    function likeTweet(uint _id) public {\r\n        require(_id > 0 && _id <= tweetCount);\r\n\r\n        Tweet memory _tweet = getTweet(_id);\r\n        _tweet.likes++;\r\n\r\n        tweets[_tweet.id] = _tweet;\r\n\r\n        emit TweetLiked(_tweet.id, _tweet.content, _tweet.timestamp, _tweet.likes, _tweet.tipAmount, _tweet.author);\r\n    }\r\n\r\n    function tipTweet(uint _id) public payable {\r\n        require(_id > 0 && _id <= tweetCount);\r\n\r\n        Tweet memory _tweet = getTweet(_id);\r\n        payable(address(_tweet.author)).transfer(msg.value);\r\n        _tweet.tipAmount = _tweet.tipAmount + msg.value;\r\n        \r\n        tweets[_id] = _tweet;\r\n\r\n        emit TweetTipped(_tweet.id, _tweet.content, _tweet.timestamp, _tweet.likes, _tweet.tipAmount, _tweet.author);\r\n    }\r\n}",
  "sourcePath": "C:\\Users\\akhil\\Projects\\TweeBle\\src\\contracts\\TweeBle.sol",
  "compiler": {
    "name": "solc",
    "version": "0.8.10+commit.fc410830.Emscripten.clang"
  },
  "schemaVersion": "3.4.3",
  "updatedAt": "2021-12-06T17:13:57.453Z",
  "networkType": "ethereum",
  "devdoc": {
    "kind": "dev",
    "methods": {},
    "version": 1
  },
  "userdoc": {
    "kind": "user",
    "methods": {},
    "version": 1
  }
}